{
  "contractName": "SimpleBank",
  "abi": [
    {
      "constant": true,
      "inputs": [
        {
          "name": "",
          "type": "address"
        }
      ],
      "name": "enrolled",
      "outputs": [
        {
          "name": "",
          "type": "bool"
        }
      ],
      "payable": false,
      "stateMutability": "view",
      "type": "function"
    },
    {
      "inputs": [],
      "payable": false,
      "stateMutability": "nonpayable",
      "type": "constructor"
    },
    {
      "payable": false,
      "stateMutability": "nonpayable",
      "type": "fallback"
    },
    {
      "anonymous": false,
      "inputs": [
        {
          "indexed": true,
          "name": "accountAddress",
          "type": "address"
        }
      ],
      "name": "LogEnrolled",
      "type": "event"
    },
    {
      "anonymous": false,
      "inputs": [
        {
          "indexed": true,
          "name": "accountAddress",
          "type": "address"
        },
        {
          "indexed": false,
          "name": "amount",
          "type": "uint256"
        }
      ],
      "name": "LogDepositMade",
      "type": "event"
    },
    {
      "anonymous": false,
      "inputs": [
        {
          "indexed": true,
          "name": "accountAddress",
          "type": "address"
        },
        {
          "indexed": false,
          "name": "withdrawAmount",
          "type": "uint256"
        },
        {
          "indexed": false,
          "name": "newBalance",
          "type": "uint256"
        }
      ],
      "name": "LogWithdrawal",
      "type": "event"
    },
    {
      "constant": true,
      "inputs": [],
      "name": "balance",
      "outputs": [
        {
          "name": "",
          "type": "uint256"
        }
      ],
      "payable": false,
      "stateMutability": "view",
      "type": "function"
    },
    {
      "constant": false,
      "inputs": [],
      "name": "enroll",
      "outputs": [
        {
          "name": "",
          "type": "bool"
        }
      ],
      "payable": false,
      "stateMutability": "nonpayable",
      "type": "function"
    },
    {
      "constant": false,
      "inputs": [],
      "name": "deposit",
      "outputs": [
        {
          "name": "",
          "type": "uint256"
        }
      ],
      "payable": true,
      "stateMutability": "payable",
      "type": "function"
    },
    {
      "constant": false,
      "inputs": [
        {
          "name": "withdrawAmount",
          "type": "uint256"
        }
      ],
      "name": "withdraw",
      "outputs": [
        {
          "name": "",
          "type": "uint256"
        }
      ],
      "payable": false,
      "stateMutability": "nonpayable",
      "type": "function"
    }
  ],
  "bytecode": "0x608060405233600260006101000a81548173ffffffffffffffffffffffffffffffffffffffff021916908373ffffffffffffffffffffffffffffffffffffffff16021790555034801561005157600080fd5b5033600260006101000a81548173ffffffffffffffffffffffffffffffffffffffff021916908373ffffffffffffffffffffffffffffffffffffffff1602179055506105db806100a26000396000f30060806040526004361061006d576000357c0100000000000000000000000000000000000000000000000000000000900463ffffffff16806310eb0e0e1461007f5780632e1a7d4d146100da578063b69ef8a81461011b578063d0e30db014610146578063e65f2a7e14610164575b34801561007957600080fd5b50600080fd5b34801561008b57600080fd5b506100c0600480360381019080803573ffffffffffffffffffffffffffffffffffffffff169060200190929190505050610193565b604051808215151515815260200191505060405180910390f35b3480156100e657600080fd5b50610105600480360381019080803590602001909291905050506101b3565b6040518082815260200191505060405180910390f35b34801561012757600080fd5b50610130610391565b6040518082815260200191505060405180910390f35b61014e6103dc565b6040518082815260200191505060405180910390f35b34801561017057600080fd5b506101796104bc565b604051808215151515815260200191505060405180910390f35b60016020528060005260406000206000915054906101000a900460ff1681565b6000816000803373ffffffffffffffffffffffffffffffffffffffff1673ffffffffffffffffffffffffffffffffffffffff168152602001908152602001600020541015151561026b576040517f08c379a000000000000000000000000000000000000000000000000000000000815260040180806020018281038252601a8152602001807f596f7520446f6e74206861766520456e6f75676820457468657200000000000081525060200191505060405180910390fd5b816000803373ffffffffffffffffffffffffffffffffffffffff1673ffffffffffffffffffffffffffffffffffffffff168152602001908152602001600020600082825403925050819055503373ffffffffffffffffffffffffffffffffffffffff167ff9226daf630542048a23086c6af599511aac100ec8f532793cc9697d061bed7e836000803373ffffffffffffffffffffffffffffffffffffffff1673ffffffffffffffffffffffffffffffffffffffff16815260200190815260200160002054604051808381526020018281526020019250505060405180910390a26000803373ffffffffffffffffffffffffffffffffffffffff1673ffffffffffffffffffffffffffffffffffffffff168152602001908152602001600020549050919050565b6000803390506000808273ffffffffffffffffffffffffffffffffffffffff1673ffffffffffffffffffffffffffffffffffffffff1681526020019081526020016000205491505090565b6000346000803373ffffffffffffffffffffffffffffffffffffffff1673ffffffffffffffffffffffffffffffffffffffff168152602001908152602001600020600082825401925050819055503373ffffffffffffffffffffffffffffffffffffffff167fa8126f7572bb1fdeae5b5aa9ec126438b91f658a07873f009d041ae690f3a193346040518082815260200191505060405180910390a26000803373ffffffffffffffffffffffffffffffffffffffff1673ffffffffffffffffffffffffffffffffffffffff16815260200190815260200160002054905090565b60008033905060018060008373ffffffffffffffffffffffffffffffffffffffff1673ffffffffffffffffffffffffffffffffffffffff16815260200190815260200160002060006101000a81548160ff0219169083151502179055508073ffffffffffffffffffffffffffffffffffffffff167f990c442e6adb818b8fa7db3cf1023decd07f7b66e5306928c7ed527d974192bb60405160405180910390a2600160008273ffffffffffffffffffffffffffffffffffffffff1673ffffffffffffffffffffffffffffffffffffffff16815260200190815260200160002060009054906101000a900460ff16915050905600a165627a7a72305820d8342a5e2c945090c9e0487b120f49ea2e0c7e1cdd4fbd955f32ef42490867f90029",
  "source": "pragma solidity ^0.4.21;\r\ncontract SimpleBank {\r\n\r\n    //\r\n    // State variables\r\n    //\r\n    \r\n    /* Fill in the keyword. Hint: We want to protect our users balance from other contracts*/\r\n    mapping (address => uint) private balances;\r\n    \r\n    /* Fill in the keyword. We want to create a getter function and allow contracts to be able to see if a user is enrolled.  */\r\n    mapping (address => bool) public enrolled;\r\n\r\n    /* Let's make sure everyone knows who owns the bank. Use the appropriate keyword for this*/\r\n    address owner = msg.sender;\r\n    \r\n    //\r\n    // Events - publicize actions to external listeners\r\n    //\r\n    \r\n    /* Add an argument for this event, an accountAddress */\r\n    event LogEnrolled(address indexed accountAddress);\r\n\r\n    /* Add 2 arguments for this event, an accountAddress and an amount */\r\n    event LogDepositMade(address indexed accountAddress, uint amount);\r\n\r\n    /* Create an event called LogWithdrawal */\r\n    /* Add 3 arguments for this event, an accountAddress, withdrawAmount and a newBalance */\r\n    event LogWithdrawal(address indexed accountAddress, uint withdrawAmount, uint newBalance);\r\n\r\n    //\r\n    // Functions\r\n    //\r\n\r\n    /* Use the appropriate global variable to get the sender of the transaction */\r\n    constructor() public {\r\n        /* Set the owner to the creator of this contract */\r\n        owner = msg.sender;\r\n    }\r\n\r\n    /// @notice Get balance\r\n    /// @return The balance of the user\r\n    // A SPECIAL KEYWORD prevents function from editing state variables;\r\n    // allows function to run locally/off blockchain\r\n    function balance() public view returns (uint) {\r\n        /* Get the balance of the sender of this transaction */\r\n        address sender = msg.sender;\r\n        return balances[sender];\r\n    }\r\n\r\n    /// @notice Enroll a customer with the bank\r\n    /// @return The users enrolled status\r\n    // Emit the appropriate event\r\n    function enroll() public returns (bool){\r\n        address customer = msg.sender;\r\n        enrolled[customer] = true;\r\n        emit LogEnrolled(customer);\r\n        return enrolled[customer];\r\n    }\r\n\r\n    /// @notice Deposit ether into bank\r\n    /// @return The balance of the user after the deposit is made\r\n    // Add the appropriate keyword so that this function can receive ether\r\n    // Use the appropriate global variables to get the transaction sender and value\r\n    // Emit the appropriate event    \r\n    function deposit() public payable returns (uint) {\r\n        /* Add the amount to the user's balance, call the event associated with a deposit,\r\n          then return the balance of the user */\r\n        //   address recipient = msg.sender;\r\n        //   uint amount = msg.value;\r\n          balances[msg.sender] += msg.value;\r\n          emit LogDepositMade(msg.sender, msg.value);\r\n          return balances[msg.sender];\r\n    }\r\n\r\n    /// @notice Withdraw ether from bank\r\n    /// @dev This does not return any excess ether sent to it\r\n    /// @param withdrawAmount amount you want to withdraw\r\n    /// @return The balance remaining for the user\r\n    // Emit the appropriate event    \r\n    function withdraw(uint withdrawAmount) public returns (uint) {\r\n        /* If the sender's balance is at least the amount they want to withdraw,\r\n           Subtract the amount from the sender's balance, and try to send that amount of ether\r\n           to the user attempting to withdraw. \r\n           return the user's balance.*/\r\n        // address account = msg.sender;\r\n        require(balances[msg.sender]>=withdrawAmount, \"You Dont have Enough Ether\"); \r\n        balances[msg.sender] -= withdrawAmount;  \r\n       \r\n        emit LogWithdrawal(msg.sender, withdrawAmount, balances[msg.sender]);\r\n        return balances[msg.sender];\r\n    }\r\n\r\n    // Fallback function - Called if other functions don't match call or\r\n    // sent ether without data\r\n    // Typically, called when invalid data is sent\r\n    // Added so ether sent to this contract is reverted if the contract fails\r\n    // otherwise, the sender's money is transferred to contract\r\n    function() public {\r\n        revert();\r\n    }\r\n}",
  "sourcePath": "C:\\Users\\pdoyle\\Documents\\projects\\CODE\\simple-bank-pd164594\\contracts\\SimpleBank.sol",
  "compiler": {
    "name": "solc",
    "version": "0.4.24+commit.e67f0147.Emscripten.clang"
  },
  "schemaVersion": "2.0.1",
  "updatedAt": "2018-11-21T15:22:48.549Z"
}